:020000000A28CC
:10000800FE00030EF0000A08F10048280B28F6014C
:10001800F701F801F901830163287C207508AF0016
:100028007408AE007308AD007208AC007C2072083A
:10003800A8007308A9007408AA007508AB002C086A
:10004800A8022D08031C2D0F2A282B28A9022E08E8
:10005800031C2E0F30283128AA022F08031C2F0F4B
:1000680036283728AB0227082B02031D4528260807
:100078002A02031D452825082902031D45282408AE
:100088002802031808001A280B1D5C280B110130E0
:10009800F607003003180130F70700300318013065
:1000A800F807003003180130F9070930831281007E
:1000B80071088A00700E8300FE0E7E0E09008316FA
:1000C800910187118F2087150030A7000030A60006
:1000D8000030A5006430A400112087110030A7006B
:1000E8000030A6000030A5006430A4001120672865
:1000F8008B137908A3007808A2007708A100760876
:10010800A0008B172308F5002208F4002108F3004B
:100118002008F2000800811281110108F83902381C
:0E01280081000930831281008B168B170800AE
:02400E00D43CA0
:00000001FF
